{
  "contractName": "AirdropV2",
  "abi": [
    {
      "inputs": [],
      "stateMutability": "nonpayable",
      "type": "constructor"
    },
    {
      "anonymous": false,
      "inputs": [
        {
          "indexed": false,
          "internalType": "uint8",
          "name": "version",
          "type": "uint8"
        }
      ],
      "name": "Initialized",
      "type": "event"
    },
    {
      "anonymous": false,
      "inputs": [
        {
          "indexed": false,
          "internalType": "address",
          "name": "recipient",
          "type": "address"
        },
        {
          "indexed": false,
          "internalType": "uint256",
          "name": "amount",
          "type": "uint256"
        },
        {
          "indexed": false,
          "internalType": "uint256",
          "name": "date",
          "type": "uint256"
        }
      ],
      "name": "Processed",
      "type": "event"
    },
    {
      "inputs": [
        {
          "internalType": "address",
          "name": "",
          "type": "address"
        }
      ],
      "name": "processedAirdrops",
      "outputs": [
        {
          "internalType": "bool",
          "name": "",
          "type": "bool"
        }
      ],
      "stateMutability": "view",
      "type": "function",
      "constant": true
    },
    {
      "inputs": [
        {
          "internalType": "uint256",
          "name": "",
          "type": "uint256"
        }
      ],
      "name": "transactions",
      "outputs": [
        {
          "internalType": "uint256",
          "name": "id",
          "type": "uint256"
        },
        {
          "internalType": "address",
          "name": "sender",
          "type": "address"
        },
        {
          "internalType": "address",
          "name": "receiver",
          "type": "address"
        },
        {
          "internalType": "uint256",
          "name": "amount",
          "type": "uint256"
        },
        {
          "internalType": "string",
          "name": "remark",
          "type": "string"
        },
        {
          "internalType": "uint256",
          "name": "number",
          "type": "uint256"
        }
      ],
      "stateMutability": "view",
      "type": "function",
      "constant": true
    },
    {
      "inputs": [
        {
          "internalType": "address",
          "name": "_token",
          "type": "address"
        },
        {
          "internalType": "address",
          "name": "_admin",
          "type": "address"
        }
      ],
      "name": "initalizer",
      "outputs": [],
      "stateMutability": "nonpayable",
      "type": "function"
    },
    {
      "inputs": [
        {
          "internalType": "address",
          "name": "newAdmin",
          "type": "address"
        }
      ],
      "name": "updateAdmin",
      "outputs": [],
      "stateMutability": "nonpayable",
      "type": "function"
    },
    {
      "inputs": [
        {
          "internalType": "uint256",
          "name": "id",
          "type": "uint256"
        },
        {
          "internalType": "address",
          "name": "recipient",
          "type": "address"
        },
        {
          "internalType": "uint256",
          "name": "amount",
          "type": "uint256"
        },
        {
          "internalType": "uint256",
          "name": "max",
          "type": "uint256"
        },
        {
          "internalType": "uint256",
          "name": "state",
          "type": "uint256"
        },
        {
          "internalType": "bytes",
          "name": "signature",
          "type": "bytes"
        }
      ],
      "name": "withdraw",
      "outputs": [],
      "stateMutability": "nonpayable",
      "type": "function"
    },
    {
      "inputs": [
        {
          "internalType": "uint256",
          "name": "id",
          "type": "uint256"
        },
        {
          "internalType": "address",
          "name": "owner",
          "type": "address"
        },
        {
          "internalType": "address",
          "name": "recipient",
          "type": "address"
        },
        {
          "internalType": "uint256",
          "name": "amount",
          "type": "uint256"
        }
      ],
      "name": "deposit",
      "outputs": [],
      "stateMutability": "nonpayable",
      "type": "function"
    },
    {
      "inputs": [],
      "name": "checkAddress",
      "outputs": [
        {
          "internalType": "address",
          "name": "",
          "type": "address"
        }
      ],
      "stateMutability": "view",
      "type": "function",
      "constant": true
    },
    {
      "inputs": [],
      "name": "getTransactionIdAll",
      "outputs": [
        {
          "internalType": "uint256[]",
          "name": "",
          "type": "uint256[]"
        }
      ],
      "stateMutability": "view",
      "type": "function",
      "constant": true
    },
    {
      "inputs": [
        {
          "internalType": "uint256",
          "name": "id",
          "type": "uint256"
        }
      ],
      "name": "getTransactions",
      "outputs": [
        {
          "components": [
            {
              "internalType": "uint256",
              "name": "id",
              "type": "uint256"
            },
            {
              "internalType": "address",
              "name": "sender",
              "type": "address"
            },
            {
              "internalType": "address",
              "name": "receiver",
              "type": "address"
            },
            {
              "internalType": "uint256",
              "name": "amount",
              "type": "uint256"
            },
            {
              "internalType": "string",
              "name": "remark",
              "type": "string"
            },
            {
              "internalType": "uint256",
              "name": "number",
              "type": "uint256"
            }
          ],
          "internalType": "struct AirdropV2.TransferStruct",
          "name": "",
          "type": "tuple"
        }
      ],
      "stateMutability": "view",
      "type": "function",
      "constant": true
    },
    {
      "inputs": [],
      "name": "getTransactionsCount",
      "outputs": [
        {
          "internalType": "uint256",
          "name": "",
          "type": "uint256"
        }
      ],
      "stateMutability": "view",
      "type": "function",
      "constant": true
    },
    {
      "inputs": [],
      "name": "getLimitWithDraw",
      "outputs": [
        {
          "components": [
            {
              "internalType": "uint256",
              "name": "id",
              "type": "uint256"
            },
            {
              "internalType": "uint256",
              "name": "max",
              "type": "uint256"
            },
            {
              "internalType": "uint256",
              "name": "state",
              "type": "uint256"
            },
            {
              "internalType": "uint256[]",
              "name": "amount",
              "type": "uint256[]"
            }
          ],
          "internalType": "struct AirdropV2.LimitWithDraw[]",
          "name": "",
          "type": "tuple[]"
        }
      ],
      "stateMutability": "view",
      "type": "function",
      "constant": true
    },
    {
      "inputs": [],
      "name": "checkVersion",
      "outputs": [
        {
          "internalType": "string",
          "name": "",
          "type": "string"
        }
      ],
      "stateMutability": "pure",
      "type": "function",
      "constant": true
    }
  ],
  "bytecode": "0x60806040523480156200001157600080fd5b50620000226200002860201b60201c565b620001d3565b600060019054906101000a900460ff16156200007b576040517f08c379a0000000000000000000000000000000000000000000000000000000008152600401620000729062000127565b60405180910390fd5b60ff801660008054906101000a900460ff1660ff161015620000ed5760ff6000806101000a81548160ff021916908360ff1602179055507f7f26b83ff96e1f2b6a682f133852f6798a09c465da95921460cefb384740249860ff604051620000e4919062000149565b60405180910390a15b565b6000620000fe60278362000166565b91506200010b8262000184565b604082019050919050565b620001218162000177565b82525050565b600060208201905081810360008301526200014281620000ef565b9050919050565b600060208201905062000160600083018462000116565b92915050565b600082825260208201905092915050565b600060ff82169050919050565b7f496e697469616c697a61626c653a20636f6e747261637420697320696e69746960008201527f616c697a696e6700000000000000000000000000000000000000000000000000602082015250565b61256280620001e36000396000f3fe608060405234801561001057600080fd5b50600436106100b45760003560e01c8063753f4c3711610071578063753f4c37146101915780639ace38c2146101ad578063c54eb8ba146101e2578063c9d7e26a14610200578063e2f273bd1461021c578063e4cca4b014610238576100b4565b806307bed662146100b95780631256fa53146100d757806332ffa783146100f55780635742177c14610125578063578cb8f9146101555780636d0d9f1214610173575b600080fd5b6100c1610254565b6040516100ce9190611eb5565b60405180910390f35b6100df6102ac565b6040516100ec9190611de1565b60405180910390f35b61010f600480360381019061010a919061178b565b6102b4565b60405161011c9190611ed7565b60405180910390f35b61013f600480360381019061013a9190611825565b6102d4565b60405161014c9190611ff4565b60405180910390f35b61015d61045d565b60405161016a9190612016565b60405180910390f35b61017b610467565b6040516101889190611f52565b60405180910390f35b6101ab60048036038101906101a691906118b9565b6104a4565b005b6101c760048036038101906101c29190611825565b610d54565b6040516101d996959493929190612031565b60405180910390f35b6101ea610e58565b6040516101f79190611e93565b60405180910390f35b61021a600480360381019061021591906117b8565b610f2d565b005b6102366004803603810190610231919061178b565b6110e7565b005b610252600480360381019061024d9190611852565b6111bb565b005b606060078054806020026020016040519081016040528092919081815260200182805480156102a257602002820191906000526020600020905b81548152602001906001019080831161028e575b5050505050905090565b600033905090565b60016020528060005260406000206000915054906101000a900460ff1681565b6102dc611557565b600460008381526020019081526020016000206040518060c0016040529081600082015481526020016001820160009054906101000a900473ffffffffffffffffffffffffffffffffffffffff1673ffffffffffffffffffffffffffffffffffffffff1673ffffffffffffffffffffffffffffffffffffffff1681526020016002820160009054906101000a900473ffffffffffffffffffffffffffffffffffffffff1673ffffffffffffffffffffffffffffffffffffffff1673ffffffffffffffffffffffffffffffffffffffff168152602001600382015481526020016004820180546103ca9061224e565b80601f01602080910402602001604051908101604052809291908181526020018280546103f69061224e565b80156104435780601f1061041857610100808354040283529160200191610443565b820191906000526020600020905b81548152906001019060200180831161042657829003601f168201915b505050505081526020016005820154815250509050919050565b6000600354905090565b60606040518060400160405280600281526020017f7632000000000000000000000000000000000000000000000000000000000000815250905090565b60006104d787876040516020016104bc929190611d8f565b6040516020818303038152906040528051906020012061144c565b9050600060029054906101000a900473ffffffffffffffffffffffffffffffffffffffff1673ffffffffffffffffffffffffffffffffffffffff166105608285858080601f016020809104026020016040519081016040528093929190818152602001838380828437600081840152601f19601f8201169050808301925050505050505061147c565b73ffffffffffffffffffffffffffffffffffffffff16146105b6576040517f08c379a00000000000000000000000000000000000000000000000000000000081526004016105ad90611fd4565b60405180910390fd5b600060068054905014156106eb5760068890806001815401808255809150506001900390600052602060002001600090919091909150556000600167ffffffffffffffff81111561060a5761060961238e565b5b6040519080825280602002602001820160405280156106385781602001602082028036833780820191505090505b50905086816000815181106106505761064f61235f565b5b602002602001018181525050600560405180608001604052808b815260200188815260200187815260200183815250908060018154018082558091505060019003906000526020600020906004020160009091909190915060008201518160000155602082015181600101556040820151816002015560608201518160030190805190602001906106e29291906115b9565b50505050610a9f565b6000806001905060005b600680549050811015610748578a600682815481106107175761071661235f565b5b9060005260206000200154141561073057809250610735565b600091505b808061074090612280565b9150506106f5565b5060001515811515141561087d5760068a90806001815401808255809150506001900390600052602060002001600090919091909150556000600167ffffffffffffffff81111561079c5761079b61238e565b5b6040519080825280602002602001820160405280156107ca5781602001602082028036833780820191505090505b50905088816000815181106107e2576107e161235f565b5b602002602001018181525050600560405180608001604052808d81526020018a815260200189815260200183815250908060018154018082558091505060019003906000526020600020906004020160009091909190915060008201518160000155602082015181600101556040820151816002015560608201518160030190805190602001906108749291906115b9565b50505050610a9c565b600582815481106108915761089061235f565b5b906000526020600020906004020160020154861415610a0357600080600080600586815481106108c4576108c361235f565b5b9060005260206000209060040201600301805490509050600091505b8082101561094a57600586815481106108fc576108fb61235f565b5b9060005260206000209060040201600301828154811061091f5761091e61235f565b5b9060005260206000200154836109359190612154565b9250818061094290612280565b9250506108e0565b8a8c846109579190612154565b111561096657600193506109b3565b6005868154811061097a5761097961235f565b5b90600052602060002090600402016003018c90806001815401808255809150506001900390600052602060002001600090919091909150555b60001515841515146109fa576040517f08c379a00000000000000000000000000000000000000000000000000000000081526004016109f190611f74565b60405180910390fd5b50505050610a9b565b60405180602001604052808981525060058381548110610a2657610a2561235f565b5b9060005260206000209060040201600301906001610a45929190611606565b508560058381548110610a5b57610a5a61235f565b5b9060005260206000209060040201600201819055508660058381548110610a8557610a8461235f565b5b9060005260206000209060040201600101819055505b5b50505b600260009054906101000a900473ffffffffffffffffffffffffffffffffffffffff1673ffffffffffffffffffffffffffffffffffffffff1663a9059cbb88886040518363ffffffff1660e01b8152600401610afc929190611e33565b602060405180830381600087803b158015610b1657600080fd5b505af1158015610b2a573d6000803e3d6000fd5b505050506040513d601f19601f82011682018060405250810190610b4e91906117f8565b50600160036000828254610b629190612154565b9250508190555087600460008a815260200190815260200160002060000181905550600060029054906101000a900473ffffffffffffffffffffffffffffffffffffffff16600460008a815260200190815260200160002060010160006101000a81548173ffffffffffffffffffffffffffffffffffffffff021916908373ffffffffffffffffffffffffffffffffffffffff16021790555086600460008a815260200190815260200160002060020160006101000a81548173ffffffffffffffffffffffffffffffffffffffff021916908373ffffffffffffffffffffffffffffffffffffffff16021790555085600460008a8152602001908152602001600020600301819055506040518060400160405280600881526020017f7769746864726177000000000000000000000000000000000000000000000000815250600460008a81526020019081526020016000206004019080519060200190610cca929190611653565b5043600460008a81526020019081526020016000206005018190555060078890806001815401808255809150506001900390600052602060002001600090919091909150557f1caac21eeaeb59d957228e7836a605d196b66139d90275f0a2c179e5b1183a31878742604051610d4293929190611e5c565b60405180910390a15050505050505050565b60046020528060005260406000206000915090508060000154908060010160009054906101000a900473ffffffffffffffffffffffffffffffffffffffff16908060020160009054906101000a900473ffffffffffffffffffffffffffffffffffffffff1690806003015490806004018054610dcf9061224e565b80601f0160208091040260200160405190810160405280929190818152602001828054610dfb9061224e565b8015610e485780601f10610e1d57610100808354040283529160200191610e48565b820191906000526020600020905b815481529060010190602001808311610e2b57829003601f168201915b5050505050908060050154905086565b60606005805480602002602001604051908101604052809291908181526020016000905b82821015610f24578382906000526020600020906004020160405180608001604052908160008201548152602001600182015481526020016002820154815260200160038201805480602002602001604051908101604052809291908181526020018280548015610f0c57602002820191906000526020600020905b815481526020019060010190808311610ef8575b50505050508152505081526020019060010190610e7c565b50505050905090565b60008060019054906101000a900460ff16159050808015610f5e5750600160008054906101000a900460ff1660ff16105b80610f8b5750610f6d306114f1565b158015610f8a5750600160008054906101000a900460ff1660ff16145b5b610fca576040517f08c379a0000000000000000000000000000000000000000000000000000000008152600401610fc190611fb4565b60405180910390fd5b60016000806101000a81548160ff021916908360ff1602179055508015611007576001600060016101000a81548160ff0219169083151502179055505b81600060026101000a81548173ffffffffffffffffffffffffffffffffffffffff021916908373ffffffffffffffffffffffffffffffffffffffff16021790555082600260006101000a81548173ffffffffffffffffffffffffffffffffffffffff021916908373ffffffffffffffffffffffffffffffffffffffff16021790555080156110e25760008060016101000a81548160ff0219169083151502179055507f7f26b83ff96e1f2b6a682f133852f6798a09c465da95921460cefb384740249860016040516110d99190611f37565b60405180910390a15b505050565b600060029054906101000a900473ffffffffffffffffffffffffffffffffffffffff1673ffffffffffffffffffffffffffffffffffffffff163373ffffffffffffffffffffffffffffffffffffffff1614611177576040517f08c379a000000000000000000000000000000000000000000000000000000000815260040161116e90611f94565b60405180910390fd5b80600060026101000a81548173ffffffffffffffffffffffffffffffffffffffff021916908373ffffffffffffffffffffffffffffffffffffffff16021790555050565b600260009054906101000a900473ffffffffffffffffffffffffffffffffffffffff1673ffffffffffffffffffffffffffffffffffffffff166323b872dd8484846040518463ffffffff1660e01b815260040161121a93929190611dfc565b602060405180830381600087803b15801561123457600080fd5b505af1158015611248573d6000803e3d6000fd5b505050506040513d601f19601f8201168201806040525081019061126c91906117f8565b506001600360008282546112809190612154565b92505081905550836004600086815260200190815260200160002060000181905550826004600086815260200190815260200160002060010160006101000a81548173ffffffffffffffffffffffffffffffffffffffff021916908373ffffffffffffffffffffffffffffffffffffffff160217905550816004600086815260200190815260200160002060020160006101000a81548173ffffffffffffffffffffffffffffffffffffffff021916908373ffffffffffffffffffffffffffffffffffffffff1602179055508060046000868152602001908152602001600020600301819055506040518060400160405280600781526020017f6465706f736974000000000000000000000000000000000000000000000000008152506004600086815260200190815260200160002060040190805190602001906113c6929190611653565b5043600460008681526020019081526020016000206005018190555060078490806001815401808255809150506001900390600052602060002001600090919091909150557f1caac21eeaeb59d957228e7836a605d196b66139d90275f0a2c179e5b1183a3182824260405161143e93929190611e5c565b60405180910390a150505050565b60008160405160200161145f9190611dbb565b604051602081830303815290604052805190602001209050919050565b60008060008061148b85611514565b809350819450829550505050600186848484604051600081526020016040526040516114ba9493929190611ef2565b6020604051602081039080840390855afa1580156114dc573d6000803e3d6000fd5b50505060206040510351935050505092915050565b6000808273ffffffffffffffffffffffffffffffffffffffff163b119050919050565b6000806000604184511461152757600080fd5b60008060006020870151925060408701519150606087015160001a90508083839550955095505050509193909250565b6040518060c0016040528060008152602001600073ffffffffffffffffffffffffffffffffffffffff168152602001600073ffffffffffffffffffffffffffffffffffffffff1681526020016000815260200160608152602001600081525090565b8280548282559060005260206000209081019282156115f5579160200282015b828111156115f45782518255916020019190600101906115d9565b5b50905061160291906116d9565b5090565b828054828255906000526020600020908101928215611642579160200282015b82811115611641578251825591602001919060010190611626565b5b50905061164f91906116d9565b5090565b82805461165f9061224e565b90600052602060002090601f01602090048101928261168157600085556116c8565b82601f1061169a57805160ff19168380011785556116c8565b828001600101855582156116c8579182015b828111156116c75782518255916020019190600101906116ac565b5b5090506116d591906116d9565b5090565b5b808211156116f25760008160009055506001016116da565b5090565b600081359050611705816124e7565b92915050565b60008151905061171a816124fe565b92915050565b60008083601f840112611736576117356123c2565b5b8235905067ffffffffffffffff811115611753576117526123bd565b5b60208301915083600182028301111561176f5761176e6123c7565b5b9250929050565b60008135905061178581612515565b92915050565b6000602082840312156117a1576117a06123d1565b5b60006117af848285016116f6565b91505092915050565b600080604083850312156117cf576117ce6123d1565b5b60006117dd858286016116f6565b92505060206117ee858286016116f6565b9150509250929050565b60006020828403121561180e5761180d6123d1565b5b600061181c8482850161170b565b91505092915050565b60006020828403121561183b5761183a6123d1565b5b600061184984828501611776565b91505092915050565b6000806000806080858703121561186c5761186b6123d1565b5b600061187a87828801611776565b945050602061188b878288016116f6565b935050604061189c878288016116f6565b92505060606118ad87828801611776565b91505092959194509250565b600080600080600080600060c0888a0312156118d8576118d76123d1565b5b60006118e68a828b01611776565b97505060206118f78a828b016116f6565b96505060406119088a828b01611776565b95505060606119198a828b01611776565b945050608061192a8a828b01611776565b93505060a088013567ffffffffffffffff81111561194b5761194a6123cc565b5b6119578a828b01611720565b925092505092959891949750929550565b60006119748383611c5f565b905092915050565b60006119888383611d4b565b60208301905092915050565b61199d816121aa565b82525050565b6119ac816121aa565b82525050565b6119c36119be826121aa565b6122c9565b82525050565b60006119d4826120b9565b6119de81856120f4565b9350836020820285016119f085612099565b8060005b85811015611a2c5784840389528151611a0d8582611968565b9450611a18836120da565b925060208a019950506001810190506119f4565b50829750879550505050505092915050565b6000611a49826120c4565b611a538185612105565b9350611a5e836120a9565b8060005b83811015611a8f578151611a76888261197c565b9750611a81836120e7565b925050600181019050611a62565b5085935050505092915050565b6000611aa7826120c4565b611ab18185612116565b9350611abc836120a9565b8060005b83811015611aed578151611ad4888261197c565b9750611adf836120e7565b925050600181019050611ac0565b5085935050505092915050565b611b03816121bc565b82525050565b611b12816121c8565b82525050565b611b29611b24826121c8565b6122db565b82525050565b611b3881612209565b82525050565b6000611b49826120cf565b611b538185612127565b9350611b6381856020860161221b565b611b6c816123d6565b840191505092915050565b6000611b82826120cf565b611b8c8185612138565b9350611b9c81856020860161221b565b611ba5816123d6565b840191505092915050565b6000611bbd601c83612149565b9150611bc8826123f4565b601c82019050919050565b6000611be0601a83612138565b9150611beb8261241d565b602082019050919050565b6000611c03600a83612138565b9150611c0e82612446565b602082019050919050565b6000611c26602e83612138565b9150611c318261246f565b604082019050919050565b6000611c49600f83612138565b9150611c54826124be565b602082019050919050565b6000608083016000830151611c776000860182611d4b565b506020830151611c8a6020860182611d4b565b506040830151611c9d6040860182611d4b565b5060608301518482036060860152611cb58282611a3e565b9150508091505092915050565b600060c083016000830151611cda6000860182611d4b565b506020830151611ced6020860182611994565b506040830151611d006040860182611994565b506060830151611d136060860182611d4b565b5060808301518482036080860152611d2b8282611b3e565b91505060a0830151611d4060a0860182611d4b565b508091505092915050565b611d54816121f2565b82525050565b611d63816121f2565b82525050565b611d7a611d75826121f2565b6122f7565b82525050565b611d89816121fc565b82525050565b6000611d9b82856119b2565b601482019150611dab8284611d69565b6020820191508190509392505050565b6000611dc682611bb0565b9150611dd28284611b18565b60208201915081905092915050565b6000602082019050611df660008301846119a3565b92915050565b6000606082019050611e1160008301866119a3565b611e1e60208301856119a3565b611e2b6040830184611d5a565b949350505050565b6000604082019050611e4860008301856119a3565b611e556020830184611d5a565b9392505050565b6000606082019050611e7160008301866119a3565b611e7e6020830185611d5a565b611e8b6040830184611d5a565b949350505050565b60006020820190508181036000830152611ead81846119c9565b905092915050565b60006020820190508181036000830152611ecf8184611a9c565b905092915050565b6000602082019050611eec6000830184611afa565b92915050565b6000608082019050611f076000830187611b09565b611f146020830186611d80565b611f216040830185611b09565b611f2e6060830184611b09565b95945050505050565b6000602082019050611f4c6000830184611b2f565b92915050565b60006020820190508181036000830152611f6c8184611b77565b905092915050565b60006020820190508181036000830152611f8d81611bd3565b9050919050565b60006020820190508181036000830152611fad81611bf6565b9050919050565b60006020820190508181036000830152611fcd81611c19565b9050919050565b60006020820190508181036000830152611fed81611c3c565b9050919050565b6000602082019050818103600083015261200e8184611cc2565b905092915050565b600060208201905061202b6000830184611d5a565b92915050565b600060c0820190506120466000830189611d5a565b61205360208301886119a3565b61206060408301876119a3565b61206d6060830186611d5a565b818103608083015261207f8185611b77565b905061208e60a0830184611d5a565b979650505050505050565b6000819050602082019050919050565b6000819050602082019050919050565b600081519050919050565b600081519050919050565b600081519050919050565b6000602082019050919050565b6000602082019050919050565b600082825260208201905092915050565b600082825260208201905092915050565b600082825260208201905092915050565b600082825260208201905092915050565b600082825260208201905092915050565b600081905092915050565b600061215f826121f2565b915061216a836121f2565b9250827fffffffffffffffffffffffffffffffffffffffffffffffffffffffffffffffff0382111561219f5761219e612301565b5b828201905092915050565b60006121b5826121d2565b9050919050565b60008115159050919050565b6000819050919050565b600073ffffffffffffffffffffffffffffffffffffffff82169050919050565b6000819050919050565b600060ff82169050919050565b6000612214826121fc565b9050919050565b60005b8381101561223957808201518184015260208101905061221e565b83811115612248576000848401525b50505050565b6000600282049050600182168061226657607f821691505b6020821081141561227a57612279612330565b5b50919050565b600061228b826121f2565b91507fffffffffffffffffffffffffffffffffffffffffffffffffffffffffffffffff8214156122be576122bd612301565b5b600182019050919050565b60006122d4826122e5565b9050919050565b6000819050919050565b60006122f0826123e7565b9050919050565b6000819050919050565b7f4e487b7100000000000000000000000000000000000000000000000000000000600052601160045260246000fd5b7f4e487b7100000000000000000000000000000000000000000000000000000000600052602260045260246000fd5b7f4e487b7100000000000000000000000000000000000000000000000000000000600052603260045260246000fd5b7f4e487b7100000000000000000000000000000000000000000000000000000000600052604160045260246000fd5b600080fd5b600080fd5b600080fd5b600080fd5b600080fd5b6000601f19601f8301169050919050565b60008160601b9050919050565b7f19457468657265756d205369676e6564204d6573736167653a0a333200000000600082015250565b7f7769746864726177206d6f7265207468616e206d6178696d756d000000000000600082015250565b7f6f6e6c792061646d696e00000000000000000000000000000000000000000000600082015250565b7f496e697469616c697a61626c653a20636f6e747261637420697320616c72656160008201527f647920696e697469616c697a6564000000000000000000000000000000000000602082015250565b7f77726f6e67207369676e61747572650000000000000000000000000000000000600082015250565b6124f0816121aa565b81146124fb57600080fd5b50565b612507816121bc565b811461251257600080fd5b50565b61251e816121f2565b811461252957600080fd5b5056fea2646970667358221220424cc943d98c03ac2dcb369a6354ebf14b116ea3cf01da1091e7fba3dbf4fdda64736f6c63430008050033",
  "immutableReferences": {},
  "source": "// SPDX-License-Identifier: MIT\npragma solidity ^0.8.2;\n\nimport \"@openzeppelin/contracts/token/ERC20/IERC20.sol\";\nimport \"@openzeppelin/contracts/utils/Strings.sol\";\nimport \"@openzeppelin/contracts-upgradeable/proxy/utils/Initializable.sol\";\ncontract AirdropV2 is Initializable{\n    address private admin;\n    mapping(address => bool) public processedAirdrops;\n    IERC20 private token;\n    uint256 transactionCounts;\n    struct TransferStruct {\n        uint256 id;\n        address sender;\n        address receiver;\n        uint256 amount;\n        string remark;\n        uint256 number;\n    }\n    struct LimitWithDraw {\n        uint256 id;\n        uint256 max;\n        uint256 state;\n        uint256[] amount;\n    }\n    mapping (uint256 => TransferStruct) public transactions;\n    LimitWithDraw[] limitWithDraw;\n    uint256[] userManageId;\n    uint256[] transactionId;\n    event Processed(address recipient, uint256 amount, uint256 date);\n    function initalizer(address _token, address _admin) public initializer(){\n        admin = _admin;\n        token = IERC20(_token);\n    }\n    /// @custom:oz-upgrades-unsafe-allow constructor\n    constructor() {\n        _disableInitializers();\n    }\n\n    function updateAdmin(address newAdmin) external {\n        require(msg.sender == admin, \"only admin\");\n        admin = newAdmin;\n    }\n\n    function withdraw(\n        uint256 id,\n        address recipient,\n        uint256 amount,\n        uint256 max,\n        uint256 state,\n        bytes calldata signature\n    ) external {\n        bytes32 message = prefixed(\n            keccak256(abi.encodePacked(recipient, amount))\n        );\n        require(recoverSigner(message, signature) == admin, \"wrong signature\");\n        if (userManageId.length == 0) {\n            userManageId.push(id);\n            uint256[] memory data = new uint256[](1);\n            data[0] = amount;\n            limitWithDraw.push(LimitWithDraw(id, max, state, data));\n        } else {\n            uint256 index;\n            bool isFound = true;\n            for (uint256 i = 0; i < userManageId.length; i++)\n                if (userManageId[i] == id) {\n                    index = i;\n                } else {\n                    isFound = false;\n                }\n            if (isFound == false) {\n                userManageId.push(id);\n                uint256[] memory data = new uint256[](1);\n                data[0] = amount;\n                limitWithDraw.push(LimitWithDraw(id, max, state, data));\n            } else {\n                if (state == limitWithDraw[index].state) {\n                    bool isMoreThan = false;\n                    uint256 all = 0;\n                    uint256 i = 0;\n                    uint256 len = limitWithDraw[index].amount.length;\n                    for (i = 0; i < len; i++) {\n                        all = all + limitWithDraw[index].amount[i];\n                    }\n                    if ((all + amount) > max) {\n                        isMoreThan = true;\n                    } else {\n                        limitWithDraw[index].amount.push(amount);\n                    }\n                    require(isMoreThan == false, \"withdraw more than maximum\");\n                } else {\n                    limitWithDraw[index].amount = [amount];\n                    limitWithDraw[index].state = state;\n                    limitWithDraw[index].max = max;\n                }\n            }\n        }\n\n        token.transfer(recipient, amount);\n        transactionCounts += 1;\n        transactions[id].id = id;\n        transactions[id].sender = admin;\n        transactions[id].receiver = recipient;\n        transactions[id].amount = amount;\n        transactions[id].remark = \"withdraw\";\n        transactions[id].number = block.number;\n        transactionId.push(id);\n        emit Processed(recipient, amount, block.timestamp);\n    }\n\n    function deposit(\n        uint256 id,\n        address owner,\n        address recipient,\n        uint256 amount\n    ) external {\n        token.transferFrom(owner, recipient, amount);\n        transactionCounts += 1;\n        transactions[id].id = id;\n        transactions[id].sender = owner;\n        transactions[id].receiver = recipient;\n        transactions[id].amount = amount;\n        transactions[id].remark = \"deposit\";\n        transactions[id].number = block.number;\n        transactionId.push(id);\n        emit Processed(recipient, amount, block.timestamp);\n    }\n\n    function prefixed(bytes32 hash) internal pure returns (bytes32) {\n        return\n            keccak256(\n                abi.encodePacked(\"\\x19Ethereum Signed Message:\\n32\", hash)\n            );\n    }\n\n    function recoverSigner(bytes32 message, bytes memory sig)\n        internal\n        pure\n        returns (address)\n    {\n        uint8 v;\n        bytes32 r;\n        bytes32 s;\n\n        (v, r, s) = splitSignature(sig);\n\n        return ecrecover(message, v, r, s);\n    }\n\n    function splitSignature(bytes memory sig)\n        internal\n        pure\n        returns (\n            uint8,\n            bytes32,\n            bytes32\n        )\n    {\n        require(sig.length == 65);\n\n        bytes32 r;\n        bytes32 s;\n        uint8 v;\n\n        assembly {\n            // first 32 bytes, after the length prefix\n            r := mload(add(sig, 32))\n            // second 32 bytes\n            s := mload(add(sig, 64))\n            // final byte (first byte of the next 32 bytes)\n            v := byte(0, mload(add(sig, 96)))\n        }\n\n        return (v, r, s);\n    }\n\n    function checkAddress() public view returns (address) {\n        return msg.sender;\n    }\n\n    function getTransactionIdAll() public view returns (uint256[] memory) {\n        return transactionId;\n    }\n\n    function getTransactions(uint256 id) public view returns (TransferStruct memory) {\n        return transactions[id];\n    }\n    \n    function getTransactionsCount() public view returns (uint256) {\n        return transactionCounts;\n    }\n\n    function getLimitWithDraw() public view returns (LimitWithDraw[] memory) {\n        return limitWithDraw;\n    }\n\n    function checkVersion() public pure returns (string memory) {\n        return 'v2';\n    }\n}\n",
  "sourcePath": "/Users/weerasakchiangsoi/Desktop/eattheblocks-master/screencast/321-connect-frontend-contract-bsc/contracts/AirdropV2.sol",
  "compiler": {
    "name": "solc",
    "version": "0.8.5+commit.a4f2e591.Emscripten.clang"
  },
  "schemaVersion": "3.4.8",
  "updatedAt": "2023-02-23T08:05:50.458Z",
  "networkType": "ethereum",
  "devdoc": {
    "kind": "dev",
    "methods": {
      "constructor": {
        "custom:oz-upgrades-unsafe-allow": "constructor"
      }
    },
    "version": 1
  },
  "userdoc": {
    "kind": "user",
    "methods": {},
    "version": 1
  }
}