{
  "contractName": "Airdrop",
  "abi": [
    {
      "inputs": [
        {
          "internalType": "address",
          "name": "_token",
          "type": "address"
        },
        {
          "internalType": "address",
          "name": "_admin",
          "type": "address"
        }
      ],
      "stateMutability": "nonpayable",
      "type": "constructor"
    },
    {
      "anonymous": false,
      "inputs": [
        {
          "indexed": false,
          "internalType": "address",
          "name": "recipient",
          "type": "address"
        },
        {
          "indexed": false,
          "internalType": "uint256",
          "name": "amount",
          "type": "uint256"
        },
        {
          "indexed": false,
          "internalType": "uint256",
          "name": "date",
          "type": "uint256"
        }
      ],
      "name": "Processed",
      "type": "event"
    },
    {
      "inputs": [
        {
          "internalType": "address",
          "name": "",
          "type": "address"
        }
      ],
      "name": "processedAirdrops",
      "outputs": [
        {
          "internalType": "bool",
          "name": "",
          "type": "bool"
        }
      ],
      "stateMutability": "view",
      "type": "function",
      "constant": true
    },
    {
      "inputs": [
        {
          "internalType": "uint256",
          "name": "",
          "type": "uint256"
        }
      ],
      "name": "transactions",
      "outputs": [
        {
          "internalType": "uint256",
          "name": "id",
          "type": "uint256"
        },
        {
          "internalType": "address",
          "name": "sender",
          "type": "address"
        },
        {
          "internalType": "address",
          "name": "receiver",
          "type": "address"
        },
        {
          "internalType": "uint256",
          "name": "amount",
          "type": "uint256"
        },
        {
          "internalType": "string",
          "name": "remark",
          "type": "string"
        },
        {
          "internalType": "uint256",
          "name": "number",
          "type": "uint256"
        }
      ],
      "stateMutability": "view",
      "type": "function",
      "constant": true
    },
    {
      "inputs": [
        {
          "internalType": "address",
          "name": "newAdmin",
          "type": "address"
        }
      ],
      "name": "updateAdmin",
      "outputs": [],
      "stateMutability": "nonpayable",
      "type": "function"
    },
    {
      "inputs": [
        {
          "internalType": "uint256",
          "name": "id",
          "type": "uint256"
        },
        {
          "internalType": "address",
          "name": "recipient",
          "type": "address"
        },
        {
          "internalType": "uint256",
          "name": "amount",
          "type": "uint256"
        },
        {
          "internalType": "uint256",
          "name": "max",
          "type": "uint256"
        },
        {
          "internalType": "uint256",
          "name": "state",
          "type": "uint256"
        },
        {
          "internalType": "bytes",
          "name": "signature",
          "type": "bytes"
        }
      ],
      "name": "withdraw",
      "outputs": [],
      "stateMutability": "nonpayable",
      "type": "function"
    },
    {
      "inputs": [
        {
          "internalType": "uint256",
          "name": "id",
          "type": "uint256"
        },
        {
          "internalType": "address",
          "name": "owner",
          "type": "address"
        },
        {
          "internalType": "address",
          "name": "recipient",
          "type": "address"
        },
        {
          "internalType": "uint256",
          "name": "amount",
          "type": "uint256"
        }
      ],
      "name": "deposit",
      "outputs": [],
      "stateMutability": "nonpayable",
      "type": "function"
    },
    {
      "inputs": [],
      "name": "checkAddress",
      "outputs": [
        {
          "internalType": "address",
          "name": "",
          "type": "address"
        }
      ],
      "stateMutability": "view",
      "type": "function",
      "constant": true
    },
    {
      "inputs": [],
      "name": "getTransactionIdAll",
      "outputs": [
        {
          "internalType": "uint256[]",
          "name": "",
          "type": "uint256[]"
        }
      ],
      "stateMutability": "view",
      "type": "function",
      "constant": true
    },
    {
      "inputs": [
        {
          "internalType": "uint256",
          "name": "id",
          "type": "uint256"
        }
      ],
      "name": "getTransactions",
      "outputs": [
        {
          "components": [
            {
              "internalType": "uint256",
              "name": "id",
              "type": "uint256"
            },
            {
              "internalType": "address",
              "name": "sender",
              "type": "address"
            },
            {
              "internalType": "address",
              "name": "receiver",
              "type": "address"
            },
            {
              "internalType": "uint256",
              "name": "amount",
              "type": "uint256"
            },
            {
              "internalType": "string",
              "name": "remark",
              "type": "string"
            },
            {
              "internalType": "uint256",
              "name": "number",
              "type": "uint256"
            }
          ],
          "internalType": "struct Airdrop.TransferStruct",
          "name": "",
          "type": "tuple"
        }
      ],
      "stateMutability": "view",
      "type": "function",
      "constant": true
    },
    {
      "inputs": [],
      "name": "getTransactionsCount",
      "outputs": [
        {
          "internalType": "uint256",
          "name": "",
          "type": "uint256"
        }
      ],
      "stateMutability": "view",
      "type": "function",
      "constant": true
    },
    {
      "inputs": [],
      "name": "getLimitWithDraw",
      "outputs": [
        {
          "components": [
            {
              "internalType": "uint256",
              "name": "id",
              "type": "uint256"
            },
            {
              "internalType": "uint256",
              "name": "max",
              "type": "uint256"
            },
            {
              "internalType": "uint256",
              "name": "state",
              "type": "uint256"
            },
            {
              "internalType": "uint256[]",
              "name": "amount",
              "type": "uint256[]"
            }
          ],
          "internalType": "struct Airdrop.LimitWithDraw[]",
          "name": "",
          "type": "tuple[]"
        }
      ],
      "stateMutability": "view",
      "type": "function",
      "constant": true
    }
  ],
  "bytecode": "0x60806040523480156200001157600080fd5b5060405162002342380380620023428339818101604052810190620000379190620000d7565b806000806101000a81548173ffffffffffffffffffffffffffffffffffffffff021916908373ffffffffffffffffffffffffffffffffffffffff16021790555081600260006101000a81548173ffffffffffffffffffffffffffffffffffffffff021916908373ffffffffffffffffffffffffffffffffffffffff160217905550505062000171565b600081519050620000d18162000157565b92915050565b60008060408385031215620000f157620000f062000152565b5b60006200010185828601620000c0565b92505060206200011485828601620000c0565b9150509250929050565b60006200012b8262000132565b9050919050565b600073ffffffffffffffffffffffffffffffffffffffff82169050919050565b600080fd5b62000162816200011e565b81146200016e57600080fd5b50565b6121c180620001816000396000f3fe608060405234801561001057600080fd5b506004361061009e5760003560e01c8063753f4c3711610066578063753f4c371461015d5780639ace38c214610179578063c54eb8ba146101ae578063e2f273bd146101cc578063e4cca4b0146101e85761009e565b806307bed662146100a35780631256fa53146100c157806332ffa783146100df5780635742177c1461010f578063578cb8f91461013f575b600080fd5b6100ab610204565b6040516100b89190611bd2565b60405180910390f35b6100c961025c565b6040516100d69190611afe565b60405180910390f35b6100f960048036038101906100f4919061151a565b610264565b6040516101069190611bf4565b60405180910390f35b61012960048036038101906101249190611574565b610284565b6040516101369190611cb4565b60405180910390f35b61014761040d565b6040516101549190611cd6565b60405180910390f35b61017760048036038101906101729190611608565b610417565b005b610193600480360381019061018e9190611574565b610cc3565b6040516101a596959493929190611cf1565b60405180910390f35b6101b6610dc7565b6040516101c39190611bb0565b60405180910390f35b6101e660048036038101906101e1919061151a565b610e9c565b005b61020260048036038101906101fd91906115a1565b610f6d565b005b6060600780548060200260200160405190810160405280929190818152602001828054801561025257602002820191906000526020600020905b81548152602001906001019080831161023e575b5050505050905090565b600033905090565b60016020528060005260406000206000915054906101000a900460ff1681565b61028c6112e6565b600460008381526020019081526020016000206040518060c0016040529081600082015481526020016001820160009054906101000a900473ffffffffffffffffffffffffffffffffffffffff1673ffffffffffffffffffffffffffffffffffffffff1673ffffffffffffffffffffffffffffffffffffffff1681526020016002820160009054906101000a900473ffffffffffffffffffffffffffffffffffffffff1673ffffffffffffffffffffffffffffffffffffffff1673ffffffffffffffffffffffffffffffffffffffff1681526020016003820154815260200160048201805461037a90611efc565b80601f01602080910402602001604051908101604052809291908181526020018280546103a690611efc565b80156103f35780601f106103c8576101008083540402835291602001916103f3565b820191906000526020600020905b8154815290600101906020018083116103d657829003601f168201915b505050505081526020016005820154815250509050919050565b6000600354905090565b600061044a878760405160200161042f929190611aac565b604051602081830303815290604052805190602001206111fe565b905060008054906101000a900473ffffffffffffffffffffffffffffffffffffffff1673ffffffffffffffffffffffffffffffffffffffff166104d18285858080601f016020809104026020016040519081016040528093929190818152602001838380828437600081840152601f19601f8201169050808301925050505050505061122e565b73ffffffffffffffffffffffffffffffffffffffff1614610527576040517f08c379a000000000000000000000000000000000000000000000000000000000815260040161051e90611c94565b60405180910390fd5b6000600680549050141561065c5760068890806001815401808255809150506001900390600052602060002001600090919091909150556000600167ffffffffffffffff81111561057b5761057a61203c565b5b6040519080825280602002602001820160405280156105a95781602001602082028036833780820191505090505b50905086816000815181106105c1576105c061200d565b5b602002602001018181525050600560405180608001604052808b81526020018881526020018781526020018381525090806001815401808255809150506001900390600052602060002090600402016000909190919091506000820151816000015560208201518160010155604082015181600201556060820151816003019080519060200190610653929190611348565b50505050610a10565b6000806001905060005b6006805490508110156106b9578a600682815481106106885761068761200d565b5b906000526020600020015414156106a1578092506106a6565b600091505b80806106b190611f2e565b915050610666565b506000151581151514156107ee5760068a90806001815401808255809150506001900390600052602060002001600090919091909150556000600167ffffffffffffffff81111561070d5761070c61203c565b5b60405190808252806020026020018201604052801561073b5781602001602082028036833780820191505090505b50905088816000815181106107535761075261200d565b5b602002602001018181525050600560405180608001604052808d81526020018a815260200189815260200183815250908060018154018082558091505060019003906000526020600020906004020160009091909190915060008201518160000155602082015181600101556040820151816002015560608201518160030190805190602001906107e5929190611348565b50505050610a0d565b600582815481106108025761080161200d565b5b90600052602060002090600402016002015486141561097457600080600080600586815481106108355761083461200d565b5b9060005260206000209060040201600301805490509050600091505b808210156108bb576005868154811061086d5761086c61200d565b5b906000526020600020906004020160030182815481106108905761088f61200d565b5b9060005260206000200154836108a69190611e14565b925081806108b390611f2e565b925050610851565b8a8c846108c89190611e14565b11156108d75760019350610924565b600586815481106108eb576108ea61200d565b5b90600052602060002090600402016003018c90806001815401808255809150506001900390600052602060002001600090919091909150555b600015158415151461096b576040517f08c379a000000000000000000000000000000000000000000000000000000000815260040161096290611c54565b60405180910390fd5b50505050610a0c565b604051806020016040528089815250600583815481106109975761099661200d565b5b90600052602060002090600402016003019060016109b6929190611395565b5085600583815481106109cc576109cb61200d565b5b90600052602060002090600402016002018190555086600583815481106109f6576109f561200d565b5b9060005260206000209060040201600101819055505b5b50505b600260009054906101000a900473ffffffffffffffffffffffffffffffffffffffff1673ffffffffffffffffffffffffffffffffffffffff1663a9059cbb88886040518363ffffffff1660e01b8152600401610a6d929190611b50565b602060405180830381600087803b158015610a8757600080fd5b505af1158015610a9b573d6000803e3d6000fd5b505050506040513d601f19601f82011682018060405250810190610abf9190611547565b50600160036000828254610ad39190611e14565b9250508190555087600460008a81526020019081526020016000206000018190555060008054906101000a900473ffffffffffffffffffffffffffffffffffffffff16600460008a815260200190815260200160002060010160006101000a81548173ffffffffffffffffffffffffffffffffffffffff021916908373ffffffffffffffffffffffffffffffffffffffff16021790555086600460008a815260200190815260200160002060020160006101000a81548173ffffffffffffffffffffffffffffffffffffffff021916908373ffffffffffffffffffffffffffffffffffffffff16021790555085600460008a8152602001908152602001600020600301819055506040518060400160405280600881526020017f7769746864726177000000000000000000000000000000000000000000000000815250600460008a81526020019081526020016000206004019080519060200190610c399291906113e2565b5043600460008a81526020019081526020016000206005018190555060078890806001815401808255809150506001900390600052602060002001600090919091909150557f1caac21eeaeb59d957228e7836a605d196b66139d90275f0a2c179e5b1183a31878742604051610cb193929190611b79565b60405180910390a15050505050505050565b60046020528060005260406000206000915090508060000154908060010160009054906101000a900473ffffffffffffffffffffffffffffffffffffffff16908060020160009054906101000a900473ffffffffffffffffffffffffffffffffffffffff1690806003015490806004018054610d3e90611efc565b80601f0160208091040260200160405190810160405280929190818152602001828054610d6a90611efc565b8015610db75780601f10610d8c57610100808354040283529160200191610db7565b820191906000526020600020905b815481529060010190602001808311610d9a57829003601f168201915b5050505050908060050154905086565b60606005805480602002602001604051908101604052809291908181526020016000905b82821015610e93578382906000526020600020906004020160405180608001604052908160008201548152602001600182015481526020016002820154815260200160038201805480602002602001604051908101604052809291908181526020018280548015610e7b57602002820191906000526020600020905b815481526020019060010190808311610e67575b50505050508152505081526020019060010190610deb565b50505050905090565b60008054906101000a900473ffffffffffffffffffffffffffffffffffffffff1673ffffffffffffffffffffffffffffffffffffffff163373ffffffffffffffffffffffffffffffffffffffff1614610f2a576040517f08c379a0000000000000000000000000000000000000000000000000000000008152600401610f2190611c74565b60405180910390fd5b806000806101000a81548173ffffffffffffffffffffffffffffffffffffffff021916908373ffffffffffffffffffffffffffffffffffffffff16021790555050565b600260009054906101000a900473ffffffffffffffffffffffffffffffffffffffff1673ffffffffffffffffffffffffffffffffffffffff166323b872dd8484846040518463ffffffff1660e01b8152600401610fcc93929190611b19565b602060405180830381600087803b158015610fe657600080fd5b505af1158015610ffa573d6000803e3d6000fd5b505050506040513d601f19601f8201168201806040525081019061101e9190611547565b506001600360008282546110329190611e14565b92505081905550836004600086815260200190815260200160002060000181905550826004600086815260200190815260200160002060010160006101000a81548173ffffffffffffffffffffffffffffffffffffffff021916908373ffffffffffffffffffffffffffffffffffffffff160217905550816004600086815260200190815260200160002060020160006101000a81548173ffffffffffffffffffffffffffffffffffffffff021916908373ffffffffffffffffffffffffffffffffffffffff1602179055508060046000868152602001908152602001600020600301819055506040518060400160405280600781526020017f6465706f736974000000000000000000000000000000000000000000000000008152506004600086815260200190815260200160002060040190805190602001906111789291906113e2565b5043600460008681526020019081526020016000206005018190555060078490806001815401808255809150506001900390600052602060002001600090919091909150557f1caac21eeaeb59d957228e7836a605d196b66139d90275f0a2c179e5b1183a318282426040516111f093929190611b79565b60405180910390a150505050565b6000816040516020016112119190611ad8565b604051602081830303815290604052805190602001209050919050565b60008060008061123d856112a3565b8093508194508295505050506001868484846040516000815260200160405260405161126c9493929190611c0f565b6020604051602081039080840390855afa15801561128e573d6000803e3d6000fd5b50505060206040510351935050505092915050565b600080600060418451146112b657600080fd5b60008060006020870151925060408701519150606087015160001a90508083839550955095505050509193909250565b6040518060c0016040528060008152602001600073ffffffffffffffffffffffffffffffffffffffff168152602001600073ffffffffffffffffffffffffffffffffffffffff1681526020016000815260200160608152602001600081525090565b828054828255906000526020600020908101928215611384579160200282015b82811115611383578251825591602001919060010190611368565b5b5090506113919190611468565b5090565b8280548282559060005260206000209081019282156113d1579160200282015b828111156113d05782518255916020019190600101906113b5565b5b5090506113de9190611468565b5090565b8280546113ee90611efc565b90600052602060002090601f0160209004810192826114105760008555611457565b82601f1061142957805160ff1916838001178555611457565b82800160010185558215611457579182015b8281111561145657825182559160200191906001019061143b565b5b5090506114649190611468565b5090565b5b80821115611481576000816000905550600101611469565b5090565b60008135905061149481612146565b92915050565b6000815190506114a98161215d565b92915050565b60008083601f8401126114c5576114c4612070565b5b8235905067ffffffffffffffff8111156114e2576114e161206b565b5b6020830191508360018202830111156114fe576114fd612075565b5b9250929050565b60008135905061151481612174565b92915050565b6000602082840312156115305761152f61207f565b5b600061153e84828501611485565b91505092915050565b60006020828403121561155d5761155c61207f565b5b600061156b8482850161149a565b91505092915050565b60006020828403121561158a5761158961207f565b5b600061159884828501611505565b91505092915050565b600080600080608085870312156115bb576115ba61207f565b5b60006115c987828801611505565b94505060206115da87828801611485565b93505060406115eb87828801611485565b92505060606115fc87828801611505565b91505092959194509250565b600080600080600080600060c0888a0312156116275761162661207f565b5b60006116358a828b01611505565b97505060206116468a828b01611485565b96505060406116578a828b01611505565b95505060606116688a828b01611505565b94505060806116798a828b01611505565b93505060a088013567ffffffffffffffff81111561169a5761169961207a565b5b6116a68a828b016114af565b925092505092959891949750929550565b60006116c3838361197c565b905092915050565b60006116d78383611a68565b60208301905092915050565b6116ec81611e6a565b82525050565b6116fb81611e6a565b82525050565b61171261170d82611e6a565b611f77565b82525050565b600061172382611d79565b61172d8185611db4565b93508360208202850161173f85611d59565b8060005b8581101561177b578484038952815161175c85826116b7565b945061176783611d9a565b925060208a01995050600181019050611743565b50829750879550505050505092915050565b600061179882611d84565b6117a28185611dc5565b93506117ad83611d69565b8060005b838110156117de5781516117c588826116cb565b97506117d083611da7565b9250506001810190506117b1565b5085935050505092915050565b60006117f682611d84565b6118008185611dd6565b935061180b83611d69565b8060005b8381101561183c57815161182388826116cb565b975061182e83611da7565b92505060018101905061180f565b5085935050505092915050565b61185281611e7c565b82525050565b61186181611e88565b82525050565b61187861187382611e88565b611f89565b82525050565b600061188982611d8f565b6118938185611de7565b93506118a3818560208601611ec9565b6118ac81612084565b840191505092915050565b60006118c282611d8f565b6118cc8185611df8565b93506118dc818560208601611ec9565b6118e581612084565b840191505092915050565b60006118fd601c83611e09565b9150611908826120a2565b601c82019050919050565b6000611920601a83611df8565b915061192b826120cb565b602082019050919050565b6000611943600a83611df8565b915061194e826120f4565b602082019050919050565b6000611966600f83611df8565b91506119718261211d565b602082019050919050565b60006080830160008301516119946000860182611a68565b5060208301516119a76020860182611a68565b5060408301516119ba6040860182611a68565b50606083015184820360608601526119d2828261178d565b9150508091505092915050565b600060c0830160008301516119f76000860182611a68565b506020830151611a0a60208601826116e3565b506040830151611a1d60408601826116e3565b506060830151611a306060860182611a68565b5060808301518482036080860152611a48828261187e565b91505060a0830151611a5d60a0860182611a68565b508091505092915050565b611a7181611eb2565b82525050565b611a8081611eb2565b82525050565b611a97611a9282611eb2565b611fa5565b82525050565b611aa681611ebc565b82525050565b6000611ab88285611701565b601482019150611ac88284611a86565b6020820191508190509392505050565b6000611ae3826118f0565b9150611aef8284611867565b60208201915081905092915050565b6000602082019050611b1360008301846116f2565b92915050565b6000606082019050611b2e60008301866116f2565b611b3b60208301856116f2565b611b486040830184611a77565b949350505050565b6000604082019050611b6560008301856116f2565b611b726020830184611a77565b9392505050565b6000606082019050611b8e60008301866116f2565b611b9b6020830185611a77565b611ba86040830184611a77565b949350505050565b60006020820190508181036000830152611bca8184611718565b905092915050565b60006020820190508181036000830152611bec81846117eb565b905092915050565b6000602082019050611c096000830184611849565b92915050565b6000608082019050611c246000830187611858565b611c316020830186611a9d565b611c3e6040830185611858565b611c4b6060830184611858565b95945050505050565b60006020820190508181036000830152611c6d81611913565b9050919050565b60006020820190508181036000830152611c8d81611936565b9050919050565b60006020820190508181036000830152611cad81611959565b9050919050565b60006020820190508181036000830152611cce81846119df565b905092915050565b6000602082019050611ceb6000830184611a77565b92915050565b600060c082019050611d066000830189611a77565b611d1360208301886116f2565b611d2060408301876116f2565b611d2d6060830186611a77565b8181036080830152611d3f81856118b7565b9050611d4e60a0830184611a77565b979650505050505050565b6000819050602082019050919050565b6000819050602082019050919050565b600081519050919050565b600081519050919050565b600081519050919050565b6000602082019050919050565b6000602082019050919050565b600082825260208201905092915050565b600082825260208201905092915050565b600082825260208201905092915050565b600082825260208201905092915050565b600082825260208201905092915050565b600081905092915050565b6000611e1f82611eb2565b9150611e2a83611eb2565b9250827fffffffffffffffffffffffffffffffffffffffffffffffffffffffffffffffff03821115611e5f57611e5e611faf565b5b828201905092915050565b6000611e7582611e92565b9050919050565b60008115159050919050565b6000819050919050565b600073ffffffffffffffffffffffffffffffffffffffff82169050919050565b6000819050919050565b600060ff82169050919050565b60005b83811015611ee7578082015181840152602081019050611ecc565b83811115611ef6576000848401525b50505050565b60006002820490506001821680611f1457607f821691505b60208210811415611f2857611f27611fde565b5b50919050565b6000611f3982611eb2565b91507fffffffffffffffffffffffffffffffffffffffffffffffffffffffffffffffff821415611f6c57611f6b611faf565b5b600182019050919050565b6000611f8282611f93565b9050919050565b6000819050919050565b6000611f9e82612095565b9050919050565b6000819050919050565b7f4e487b7100000000000000000000000000000000000000000000000000000000600052601160045260246000fd5b7f4e487b7100000000000000000000000000000000000000000000000000000000600052602260045260246000fd5b7f4e487b7100000000000000000000000000000000000000000000000000000000600052603260045260246000fd5b7f4e487b7100000000000000000000000000000000000000000000000000000000600052604160045260246000fd5b600080fd5b600080fd5b600080fd5b600080fd5b600080fd5b6000601f19601f8301169050919050565b60008160601b9050919050565b7f19457468657265756d205369676e6564204d6573736167653a0a333200000000600082015250565b7f7769746864726177206d6f7265207468616e206d6178696d756d000000000000600082015250565b7f6f6e6c792061646d696e00000000000000000000000000000000000000000000600082015250565b7f77726f6e67207369676e61747572650000000000000000000000000000000000600082015250565b61214f81611e6a565b811461215a57600080fd5b50565b61216681611e7c565b811461217157600080fd5b50565b61217d81611eb2565b811461218857600080fd5b5056fea26469706673582212202c0cf5fb04d17fd374100cddba1bb08a07942560c104a6f9b9bc02990eff798364736f6c63430008050033",
  "immutableReferences": {},
  "source": "// SPDX-License-Identifier: MIT\npragma solidity ^0.8.2;\n\nimport \"@openzeppelin/contracts/token/ERC20/IERC20.sol\";\nimport \"@openzeppelin/contracts/utils/Strings.sol\";\ncontract Airdrop{\n    address private admin;\n    mapping(address => bool) public processedAirdrops;\n    IERC20 private token;\n    uint256 transactionCounts;\n    struct TransferStruct {\n        uint256 id;\n        address sender;\n        address receiver;\n        uint256 amount;\n        string remark;\n        uint256 number;\n    }\n    struct LimitWithDraw {\n        uint256 id;\n        uint256 max;\n        uint256 state;\n        uint256[] amount;\n    }\n    mapping (uint256 => TransferStruct) public transactions;\n    LimitWithDraw[] limitWithDraw;\n    uint256[] userManageId;\n    uint256[] transactionId;\n    event Processed(address recipient, uint256 amount, uint256 date);\n    constructor(address _token, address _admin) {\n        admin = _admin;\n        token = IERC20(_token);\n    }\n\n    function updateAdmin(address newAdmin) external {\n        require(msg.sender == admin, \"only admin\");\n        admin = newAdmin;\n    }\n\n    function withdraw(\n        uint256 id,\n        address recipient,\n        uint256 amount,\n        uint256 max,\n        uint256 state,\n        bytes calldata signature\n    ) external {\n        bytes32 message = prefixed(\n            keccak256(abi.encodePacked(recipient, amount))\n        );\n        require(recoverSigner(message, signature) == admin, \"wrong signature\");\n        if (userManageId.length == 0) {\n            userManageId.push(id);\n            uint256[] memory data = new uint256[](1);\n            data[0] = amount;\n            limitWithDraw.push(LimitWithDraw(id, max, state, data));\n        } else {\n            uint256 index;\n            bool isFound = true;\n            for (uint256 i = 0; i < userManageId.length; i++)\n                if (userManageId[i] == id) {\n                    index = i;\n                } else {\n                    isFound = false;\n                }\n            if (isFound == false) {\n                userManageId.push(id);\n                uint256[] memory data = new uint256[](1);\n                data[0] = amount;\n                limitWithDraw.push(LimitWithDraw(id, max, state, data));\n            } else {\n                if (state == limitWithDraw[index].state) {\n                    bool isMoreThan = false;\n                    uint256 all = 0;\n                    uint256 i = 0;\n                    uint256 len = limitWithDraw[index].amount.length;\n                    for (i = 0; i < len; i++) {\n                        all = all + limitWithDraw[index].amount[i];\n                    }\n                    if ((all + amount) > max) {\n                        isMoreThan = true;\n                    } else {\n                        limitWithDraw[index].amount.push(amount);\n                    }\n                    require(isMoreThan == false, \"withdraw more than maximum\");\n                } else {\n                    limitWithDraw[index].amount = [amount];\n                    limitWithDraw[index].state = state;\n                    limitWithDraw[index].max = max;\n                }\n            }\n        }\n\n        token.transfer(recipient, amount);\n        transactionCounts += 1;\n        transactions[id].id = id;\n        transactions[id].sender = admin;\n        transactions[id].receiver = recipient;\n        transactions[id].amount = amount;\n        transactions[id].remark = \"withdraw\";\n        transactions[id].number = block.number;\n        transactionId.push(id);\n        emit Processed(recipient, amount, block.timestamp);\n    }\n\n    function deposit(\n        uint256 id,\n        address owner,\n        address recipient,\n        uint256 amount\n    ) external {\n        token.transferFrom(owner, recipient, amount);\n        transactionCounts += 1;\n        transactions[id].id = id;\n        transactions[id].sender = owner;\n        transactions[id].receiver = recipient;\n        transactions[id].amount = amount;\n        transactions[id].remark = \"deposit\";\n        transactions[id].number = block.number;\n        transactionId.push(id);\n        emit Processed(recipient, amount, block.timestamp);\n    }\n\n    function prefixed(bytes32 hash) internal pure returns (bytes32) {\n        return\n            keccak256(\n                abi.encodePacked(\"\\x19Ethereum Signed Message:\\n32\", hash)\n            );\n    }\n\n    function recoverSigner(bytes32 message, bytes memory sig)\n        internal\n        pure\n        returns (address)\n    {\n        uint8 v;\n        bytes32 r;\n        bytes32 s;\n\n        (v, r, s) = splitSignature(sig);\n\n        return ecrecover(message, v, r, s);\n    }\n\n    function splitSignature(bytes memory sig)\n        internal\n        pure\n        returns (\n            uint8,\n            bytes32,\n            bytes32\n        )\n    {\n        require(sig.length == 65);\n\n        bytes32 r;\n        bytes32 s;\n        uint8 v;\n\n        assembly {\n            // first 32 bytes, after the length prefix\n            r := mload(add(sig, 32))\n            // second 32 bytes\n            s := mload(add(sig, 64))\n            // final byte (first byte of the next 32 bytes)\n            v := byte(0, mload(add(sig, 96)))\n        }\n\n        return (v, r, s);\n    }\n\n    function checkAddress() public view returns (address) {\n        return msg.sender;\n    }\n\n    function getTransactionIdAll() public view returns (uint256[] memory) {\n        return transactionId;\n    }\n\n    function getTransactions(uint256 id) public view returns (TransferStruct memory) {\n        return transactions[id];\n    }\n    \n    function getTransactionsCount() public view returns (uint256) {\n        return transactionCounts;\n    }\n\n    function getLimitWithDraw() public view returns (LimitWithDraw[] memory) {\n        return limitWithDraw;\n    }\n}\n",
  "sourcePath": "/Users/weerasakchiangsoi/Desktop/eattheblocks-master/screencast/321-connect-frontend-contract-bsc/contracts/Airdrop.sol",
  "compiler": {
    "name": "solc",
    "version": "0.8.5+commit.a4f2e591.Emscripten.clang"
  },
  "schemaVersion": "3.4.8",
  "updatedAt": "2023-02-23T08:21:10.181Z",
  "networkType": "ethereum",
  "devdoc": {
    "kind": "dev",
    "methods": {},
    "version": 1
  },
  "userdoc": {
    "kind": "user",
    "methods": {},
    "version": 1
  }
}