{
  "contractName": "Payment",
  "abi": [
    {
      "inputs": [
        {
          "internalType": "address",
          "name": "adminAddress",
          "type": "address"
        },
        {
          "internalType": "address",
          "name": "usdtAddress",
          "type": "address"
        }
      ],
      "stateMutability": "nonpayable",
      "type": "constructor"
    },
    {
      "anonymous": false,
      "inputs": [
        {
          "indexed": false,
          "internalType": "address",
          "name": "payer",
          "type": "address"
        },
        {
          "indexed": false,
          "internalType": "uint256",
          "name": "amount",
          "type": "uint256"
        },
        {
          "indexed": false,
          "internalType": "uint256",
          "name": "paymentId",
          "type": "uint256"
        },
        {
          "indexed": false,
          "internalType": "uint256",
          "name": "date",
          "type": "uint256"
        }
      ],
      "name": "PaymentDone",
      "type": "event"
    },
    {
      "inputs": [],
      "name": "addresss",
      "outputs": [
        {
          "internalType": "address",
          "name": "",
          "type": "address"
        }
      ],
      "stateMutability": "view",
      "type": "function"
    },
    {
      "inputs": [],
      "name": "admin",
      "outputs": [
        {
          "internalType": "address",
          "name": "",
          "type": "address"
        }
      ],
      "stateMutability": "view",
      "type": "function"
    },
    {
      "inputs": [],
      "name": "usdt",
      "outputs": [
        {
          "internalType": "contract IERC20",
          "name": "",
          "type": "address"
        }
      ],
      "stateMutability": "view",
      "type": "function"
    },
    {
      "inputs": [
        {
          "internalType": "uint256",
          "name": "amount",
          "type": "uint256"
        }
      ],
      "name": "approveShow",
      "outputs": [],
      "stateMutability": "nonpayable",
      "type": "function"
    },
    {
      "inputs": [
        {
          "internalType": "uint256",
          "name": "amount",
          "type": "uint256"
        }
      ],
      "name": "pay",
      "outputs": [],
      "stateMutability": "nonpayable",
      "type": "function"
    },
    {
      "inputs": [],
      "name": "checkAddress",
      "outputs": [
        {
          "internalType": "address",
          "name": "",
          "type": "address"
        }
      ],
      "stateMutability": "view",
      "type": "function"
    },
    {
      "inputs": [],
      "name": "checkAddressThis",
      "outputs": [
        {
          "internalType": "address",
          "name": "",
          "type": "address"
        }
      ],
      "stateMutability": "view",
      "type": "function"
    },
    {
      "inputs": [],
      "name": "checkAddressCoin",
      "outputs": [
        {
          "internalType": "address",
          "name": "",
          "type": "address"
        }
      ],
      "stateMutability": "view",
      "type": "function"
    }
  ],
  "bytecode": "0x608060405234801561001057600080fd5b5060405161071b38038061071b83398181016040528101906100329190610110565b816000806101000a81548173ffffffffffffffffffffffffffffffffffffffff021916908373ffffffffffffffffffffffffffffffffffffffff16021790555080600160006101000a81548173ffffffffffffffffffffffffffffffffffffffff021916908373ffffffffffffffffffffffffffffffffffffffff16021790555080600260006101000a81548173ffffffffffffffffffffffffffffffffffffffff021916908373ffffffffffffffffffffffffffffffffffffffff160217905550505061019e565b60008151905061010a81610187565b92915050565b6000806040838503121561012757610126610182565b5b6000610135858286016100fb565b9250506020610146858286016100fb565b9150509250929050565b600061015b82610162565b9050919050565b600073ffffffffffffffffffffffffffffffffffffffff82169050919050565b600080fd5b61019081610150565b811461019b57600080fd5b50565b61056e806101ad6000396000f3fe608060405234801561001057600080fd5b50600436106100885760003560e01c8063aaf483fd1161005b578063aaf483fd14610105578063c290d69114610121578063e4768a121461013d578063f851a4401461015b57610088565b80631256fa531461008d5780631deb3eee146100ab5780632f48ab7d146100c95780634272c186146100e7575b600080fd5b610095610179565b6040516100a2919061043a565b60405180910390f35b6100b3610181565b6040516100c0919061043a565b60405180910390f35b6100d1610189565b6040516100de919061047e565b60405180910390f35b6100ef6101af565b6040516100fc919061043a565b60405180910390f35b61011f600480360381019061011a91906103e0565b6101d9565b005b61013b600480360381019061013691906103e0565b61028c565b005b61014561033f565b604051610152919061043a565b60405180910390f35b610163610365565b604051610170919061043a565b60405180910390f35b600033905090565b600030905090565b600160009054906101000a900473ffffffffffffffffffffffffffffffffffffffff1681565b6000600260009054906101000a900473ffffffffffffffffffffffffffffffffffffffff16905090565b600160009054906101000a900473ffffffffffffffffffffffffffffffffffffffff1673ffffffffffffffffffffffffffffffffffffffff1663095ea7b333836040518363ffffffff1660e01b8152600401610236929190610455565b602060405180830381600087803b15801561025057600080fd5b505af1158015610264573d6000803e3d6000fd5b505050506040513d601f19601f8201168201806040525081019061028891906103b3565b5050565b600160009054906101000a900473ffffffffffffffffffffffffffffffffffffffff1673ffffffffffffffffffffffffffffffffffffffff1663a9059cbb33836040518363ffffffff1660e01b81526004016102e9929190610455565b602060405180830381600087803b15801561030357600080fd5b505af1158015610317573d6000803e3d6000fd5b505050506040513d601f19601f8201168201806040525081019061033b91906103b3565b5050565b600260009054906101000a900473ffffffffffffffffffffffffffffffffffffffff1681565b60008054906101000a900473ffffffffffffffffffffffffffffffffffffffff1681565b6000815190506103988161050a565b92915050565b6000813590506103ad81610521565b92915050565b6000602082840312156103c9576103c8610505565b5b60006103d784828501610389565b91505092915050565b6000602082840312156103f6576103f5610505565b5b60006104048482850161039e565b91505092915050565b61041681610499565b82525050565b610425816104e1565b82525050565b610434816104d7565b82525050565b600060208201905061044f600083018461040d565b92915050565b600060408201905061046a600083018561040d565b610477602083018461042b565b9392505050565b6000602082019050610493600083018461041c565b92915050565b60006104a4826104b7565b9050919050565b60008115159050919050565b600073ffffffffffffffffffffffffffffffffffffffff82169050919050565b6000819050919050565b60006104ec826104f3565b9050919050565b60006104fe826104b7565b9050919050565b600080fd5b610513816104ab565b811461051e57600080fd5b50565b61052a816104d7565b811461053557600080fd5b5056fea26469706673582212208568a1c0c932fac59563d58220082794981cfee0e4da725e957797cd436eaea664736f6c63430008050033",
  "immutableReferences": {},
  "source": "// SPDX-License-Identifier: MIT\npragma solidity >=0.4.22 <0.9.0;\nimport \"@openzeppelin/contracts/token/ERC20/IERC20.sol\";\n\ncontract Payment {\n    address public admin;\n    IERC20 public usdt;\n    address public addresss;\n    event PaymentDone(\n        address payer,\n        uint256 amount,\n        uint256 paymentId,\n        uint256 date\n    );\n\n    constructor(address adminAddress, address usdtAddress) {\n        admin = adminAddress;\n        usdt = IERC20(usdtAddress);\n        addresss = usdtAddress;\n    }\n\n    function approveShow(uint256 amount) external {\n        usdt.approve(msg.sender, amount);\n    }\n\n    function pay(uint256 amount) external {\n        usdt.transfer(msg.sender, amount);\n        // emit PaymentDone(msg.sender, amount, paymentId, block.timestamp);\n    }\n\n    function checkAddress() public view returns (address) {\n        return msg.sender;\n        // emit PaymentDone(msg.sender, amount, paymentId, block.timestamp);\n    }\n\n    function checkAddressThis() public view returns (address) {\n        return address(this);\n        // emit PaymentDone(msg.sender, amount, paymentId, block.timestamp);\n    }\n\n    function checkAddressCoin() public view returns (address) {\n        return addresss;\n        // emit PaymentDone(msg.sender, amount, paymentId, block.timestamp);\n    }\n}\n",
  "sourcePath": "/Users/weerasakchiangsoi/Desktop/eattheblocks-master/screencast/321-connect-frontend-contract-bsc/contracts/Playment.sol",
  "compiler": {
    "name": "solc",
    "version": "0.8.5+commit.a4f2e591.Emscripten.clang"
  },
  "schemaVersion": "3.4.8",
  "updatedAt": "2023-02-23T08:21:10.176Z",
  "networkType": "ethereum",
  "devdoc": {
    "kind": "dev",
    "methods": {},
    "version": 1
  },
  "userdoc": {
    "kind": "user",
    "methods": {},
    "version": 1
  }
}